:0300000002004CAF
:200008000000E2FBEAF2802C0000E0FBEAF08024E6B50202EBF62200E2B50202EBF22200DE
:20002800E0B50202EBF02230F6E0A88220F5D3EAC6F582228B822230F6E6A88220F5D980EE
:01004800CFE8
:0300A5000200490D
:030049000202159B
:2000A800AE82AF83EE4F70049000C022BE0107BF00049000F922BE0207BF00049000A4229F
:2000C800BE0307BF00049000B022BE0407BF000490009922BE0507BF000490009222BE06BF
:2000E80007BF000490008222BE0707BF00049000F822BE0807BF000490008022BE0907BF72
:2001080000049000902290000022AE82AF83E59830E1FB5398FD8E998E828F83227F00BF63
:2001280032005011D294C00712013EC29412013ED0070F80EA22C030C0317530047531DC81
:20014800D531FDD530FAD031D030229000021201129000201201129000201201127543E871
:200168007544038514828515831203B6E5828583F02430F582E435F0F583120112754364CC
:200188007544008514828515831203B675430A7544001203DFE5828583F02430F582E435E9
:2001A800F0F58312011275430A7544008514828515831203B675430A7544001203DFE58256
:2001C8008583F02430F582E435F0F58312011275430A7544008514828515831203DFE582A0
:2001E8008583F02430F582E435F0F58312011290002012011290006B12011290006712018F
:200208001290000D12011290000A020112758920759840758DFD4388404398027580007597
:200228009000C2B6C294D2B4D2B574FBC0E0740BC0E07480C0E012045415811581158174E9
:2002480007C0E0740CC0E07480C0E01204541581158115817444C0E0740CC0E07480C0E003
:20026800120454158115811581120153120125E4F580F514F51520B519C2947464C0E07410
:200288000CC0E07480C0E01204541581158115818017D294746FC0E0740CC0E07480C0E0B6
:2002A80012045415811581158175430A7544008514828515831203DFAE82AF838E0C8F0DCB
:2002C800850C82850D831200A885820C85830D75430A7544008514828515831203B67543D6
:2002E8000A7544001203DFAE82AF838E0E8F0F850E82850F831200A885820E85830F7543D9
:20030800647544008514828515831203B675430A7544001203DFAE82AF838E108F11851011
:20032800828511831200A88582108583117543E87544038514828515831203B6AE82AF836F
:200348008E128F138512828513831200A8858212858313E4F50AF50B8512807590FE120121
:200368003E8510807590FD12013E850E807590FB12013E850C807590F712013E050AE4B565
:200388000A02050BAE0AAF0BC374329EE49F50C80514E4B514020515C3740F951474279524
:0E03A800155005E4F514F51512015302027EFE
:200BFB00535443383943353252430A00446563696D616C20555020436F756E74657220772B
:200C1B0069746820466F757220372D5365676D656E7420446973706C6179204D756C746940
:200C3B00706C6578696E670A0031312E30353932204D487A206372797374616C2C2039362C
:200C5B00303020426175640A0042757A7A6552204F4E0A0042757A7A6552204F46460A00E3
:2003B6007A10E4FBFCE58225E0F582E58333F583EB33FBEC33FCEB9543F5F0EC95444006E5
:0903D600FCABF0438201DADD22E8
:06007B00E478FFF6D8FD59
:200059007900E94400601B7A00900C86780175A000E493F2A308B8000205A0D9F4DAF275BB
:02007900A0FFE6
:2003DF00E543454460467A01E54325E0F543E544334012F544E5829543E583954440030A13
:2003FF0080E6C3E54413F544E54313F543C3E5829543F5F0E58395444005F58385F082C32E
:0D041F00E54413F544E54313F543DAE1220B
:200081007800E84400600A790175A000E4F309D8FC7800E84400600C7900900001E4F0A37D
:0400A100D8FCD9FAB4
:20042C00C0428581427E008E83120112D0422285822785832885F029E4F524F525F52685CB
:20044C00162A90042C020512C042E581F54224FBF52AE4F524F525F526E54224FBF886277D
:0F046C0008862808862990042C120512D04222F7
:20047B00AF82C01AC01BC01C1204888007C018C0198F82221581158115810522E4B52202F0
:20049B00052322AF8274302FFF24C6500B74072FFFE51760034307208F8202047BE582FF45
:2004BB00C4540FF582C00712049ED007740F5FF58202049E858243AB1DAC1EAD1FAE20AA14
:2004DB0021754520EA2AF544EE2354014544FAEB2BFBEC33FCED33FDEE33FEC3EA954340A3
:2004FB0008EAC39543FA430301D545D88B1D8C1E8D1F8E208A212285821885831985241AA5
:20051B0085251B85261CE4F522F523AD27AE28AF298D828E838FF0120BDBFC74012DF5274E
:20053B00E43EF5288F29ECFF7003020B9FBF25028003020B97E4F52BF52CF52DF52EF52F04
:20055B00F530F531F532F534F535F5367537FF7538FFAC27AD28AE298C828D838EF0120B01
:20057B00DBF53CA3AC82AD838C278D288E297425B53C08853C8212047B809074D0253C40D9
:20059B0003020637E53C24C6500302063774FFB5374BB53848C004C005C00685354385367B
:2005BB004490000AC006C005C004120BBEAA82AB83D004D005D006AE3C7D00EE2AFAED3B9E
:2005DB00FBEA24D0F535EB34FFF536E5354536D006D005D0047081752C01020573C004C00F
:2005FB0005C00685374385384490000AC006C005C004120BBEAA82AB83D004D005D006ADCB
:20061B003C7E00ED2AFAEE3BFBEA24D0F537EB34FFF538D006D005D004020573742EB53CEF
:20063B001574FFB53705B538028003020573E4F537F538020573749F253C500EE53C2485E7
:20065B004008533CDF75170180037517007420B53C03020704742BB53C030206FE742DB5A9
:20067B003C0280797442B53C0302070A7443B53C030207167444B53C030208A87446B53C98
:20069B00030208BF7448B53C030205737449B53C030208A8744AB53C03020573744CB53C09
:2006BB00028052744FB53C030208B07450B53C0302083D7453B53C0280627454B53C030281
:2006DB0005737455B53C030208B57458B53C030208BA745AB53C030205730208C4752B01DC
:2006FB00020573752D01020573752E01020573753001020573753101020573E530600AE585
:20071B002A14F9892A8706800BE52A24FEFD8D2A8D0187068E8212047B0208D0E52A24FD11
:20073B00FE8E2A8E01870409870509870619198C1D8D1E8E1F8C828D838EF0120BA685820A
:20075B003D85833E74FFB53709B53806853D37853E38E52B703DC3E53D9535E53E95365002
:20077B0032E535C3953DF535E536953EF536AC35AB368C028B061CBCFF011BEA4E60107549
:20079B008220C004C00312047BD003D00480E38C358B36AD37AE38AA1DAB1EAC1F8A828B3C
:2007BB00838CF0120BDBFC6033C3E49D74808EF063F08095F050251DBDFF011E8C82C00649
:2007DB00C00512047BD005D006AA1DAB1EAC1F0ABA00010B8A1D8B1E8C1F80BBE52B700319
:2007FB000208D0C3E53D9535E53E953640030208D0E535C3953DF535E536953EF536AE3575
:20081B00AD368E038D041EBEFF011DEB4C70030208CC758220C006C00512047BD005D00661
:20083B0080E0E52A24FDFC8C2A8C01870209870309870419198A1D8B1E8C1FAC1FBC8000EA
:20085B0040047B438014BC600040047B50800BBC400040047B4980027B588B82C0031204F2
:20087B007B75823A12047B75823012047B75827812047BD003BB4902800BBB5002800685EC
:20089B001E821204B8851D821204B88028752F0175340A8020753408801B75340A80167533
:2008BB0034108011753201800C853C8212047B80048E358D36E532605BE52A24FCFE8E2A7F
:2008DB008E0187030987040987050987061919198B1D8C1E8D1F8E20751D7B751E0C751FEE
:2008FB0080851D3F851E40851F417401253FFAE43540FBAE418A1D8B1E8E1F853F82854096
:20091B00838541F0120BDBFD70030205268D8212047B80CDE5347003020526E5306032E5BC
:20093B002A14F9892A87067D007C007B008E1D8D1E8C1F8B20E52F7072AB1DAC1EAD1FAE03
:20095B00207C007D007E008B1D8C1E8D1F8E20805AE5316021E52A24FCFE8E2A8E018703CA
:20097B000987040987050987061919198B1D8C1E8D1F8E208035E52A24FEFE8E2A8E0187F4
:20099B000509870619EE3395E0FCFB8D1D8E1E8C1F8B20E52F7014AB1DAC1EAD1FAE207D0E
:2009BB00007E008B1D8C1E8D1F8E20E52F602DAB1DAC1EAD1FE52030E71FAB1DAC1EAD1F5A
:2009DB00AE20C3E49BFBE49CFCE49DFDE49EFE8B1D8C1E8D1F8E208003752F007533017982
:2009FB004BE4F53FF540752100853482C0011204CFD001E5337013E521C454F0FCE521C48D
:200A1B00540F4204E74CF7198002A7217401253FF53FE43540F540E533B40100E433F533DE
:200A3B00AA1DAB1EAC1FAE20EA4B4C4E70B8893B853F3985403AE53545367005753501F511
:200A5B0036E52C702FE52B702BAA35AB36AE390E8E057E00C3ED9AEE9B5015758220C00312
:200A7B00C00212047BD002D0031ABAFF011B80DD8A358B36E52F601175822D12047B153513
:200A9B0074FFB535021536802EE539453A6028E52D601175822B12047B153574FFB53502DF
:200ABB0015368013E52E600F75822012047B153574FFB535021536E52B702FAE35AD368E1C
:200ADB00038D041EBEFF011DC3E5399BE53A9C503AE52C60047C3080027C208C82C006C0DA
:200AFB000512047BD005D00680D5C3E5399535E53A9536500FE535C39539F535E536953A92
:200B1B00F536800BE4F535F53680048E358D36A93BAD39AE3A8D038E041DBDFF011EEB4CBE
:200B3B00602FE533B40100E433F533700909E7C4540FF52180078704740F5CF5218521822A
:200B5B00C006C005C00112049ED001D005D00680C4E52B7003020526AD35AE368D038E0422
:200B7B001DBDFF011EEB4C7003020526758220C006C00512047BD005D00680E08F82120426
:0B0B9B007B0205268522828523832231
:0B0C7B003C4E4F20464C4F41543E00C1
:180BA600AA82AB83120BDB6003A380F8C3E5829AF582E5839BF583228F
:1D0BBE00E5828543F0A4C582C0F08544F0A4D0F025F0C5838543F0A42583F5832248
:0D004C0075814B120BF7E58260030200493D
:1C0BDB0020F71430F6148883A88220F507E6A88375830022E280F7E49322E02229
:040BF70075820022E1
:00000001FF
