:03000000020006F5
:03005F0002000399
:030003000201CF28
:20006200AE82AF83EE4F70049000C022BE0107BF00049000F922BE0207BF00049000A422E5
:20008200BE0307BF00049000B022BE0407BF000490009922BE0507BF000490009222BE0605
:2000A20007BF000490008222BE0707BF00049000F822BE0807BF000490008022BE0907BFB8
:2000C20000049000902290000022AE82AF83E59830E1FB5398FD8E998E828F83227F00BFAA
:2000E20032005011D294C0071200F8C2941200F8D0070F80EA22C030C0317530047531DC56
:20010200D531FDD530FAD031D030229000021200CC9000201200CC9000201200CC7546E889
:20012200754703851482851583120370E5828583F02430F582E435F0F5831200CC75466499
:2001420075470085148285158312037075460A754700120399E5828583F02430F582E435B2
:20016200F0F5831200CC75460A75470085148285158312037075460A754700120399E58263
:200182008583F02430F582E435F0F5831200CC75460A754700851482851583120399E5826D
:2001A2008583F02430F582E435F0F5831200CC9000201200CC90006B1200CC9000671200AB
:2001C200CC90000D1200CC90000A0200CC758920759840758DFD43884043980275800075B2
:2001E2009000C2B6C294D2B4D2B57472C0E0740BC0E07480C0E012040E15811581158174FF
:200202007EC0E0740BC0E07480C0E012040E15811581158174BBC0E0740BC0E07480C0E0A3
:2002220012040E15811581158112010D1200DFE4F580F514F51520B519C29474DBC0E074B2
:200242000BC0E07480C0E012040E1581158115818017D29474E6C0E0740BC0E07480C0E0CD
:2002620012040E15811581158175460A754700851482851583120399AE82AF838E0C8F0D97
:20028200850C82850D8312006285820C85830D75460A75470085148285158312037075469F
:2002A2000A754700120399AE82AF838E0E8F0F850E82850F8312006285820E85830F7546A5
:2002C2006475470085148285158312037075460A754700120399AE82AF838E108F118510DB
:2002E200828511831200628582108583117546E8754703851482851583120370AE82AF833C
:200302008E128F13851282851383120062858212858313E4F50AF50B8512807590FE1200AE
:20032200F88510807590FD1200F8850E807590FB1200F8850C807590F71200F8050AE4B5C6
:200342000A02050BAE0AAF0BC374329EE49F50C80514E4B514020515C3740F95147427956A
:0E036200155005E4F514F51512010D020238D0
:200B7200535443383943353252430A00446563696D616C20555020436F756E7465722077B4
:200B920069746820466F757220372D5365676D656E7420446973706C6179204D756C7469CA
:200BB200706C6578696E670A0031312E30353932204D487A206372797374616C2C203936B6
:200BD200303020426175640A0042757A7A6552204F4E0A0042757A7A6552204F46460A006D
:200370007A10E4FBFCE58225E0F582E58333F583EB33FBEC33FCEB9546F5F0EC9547400625
:09039000FCABF0438201DADD222E
:06003500E478FFF6D8FD9F
:200013007900E94400601B7A00900BFD780175A000E493F2A308B8000205A0D9F4DAF2758B
:02003300A0FF2C
:20039900E546454760467A01E54625E0F546E547334012F547E5829546E583954740030A41
:2003B90080E6C3E54713F547E54613F546C3E5829546F5F0E58395474005F58385F082C362
:0D03D900E54713F547E54613F546DAE12246
:20003B007800E84400600A790175A000E4F309D8FC7800E84400600C7900900001E4F0A3C3
:04005B00D8FCD9FAFA
:2003E600C0458581457E008E831200CCD0452285822785832885F029E4F524F525F5268550
:20040600162A9003E60204CFC045E581F54524FBFF8F2AE4F524F525F526E54524FBF886D3
:10042600270886280886299003E61204CFD045229D
:20043600AF82C01AC01BC01C1204438007C018C0198F82221581158115810522E4B522027A
:20045600052322AF8274302FFF24C6500B74072FFFE51760034307208F82020436E582FFCF
:20047600C4540FF582C007120459D007740F5FF582020459858246AB1DAC1EAD1FAE20AAE0
:20049600217548208A07EF2FF547EE2354014547FAEB2BFBEC33FCED33FDEE33FEC3EA95C7
:2004B600464008EAC39546FA430301D548D68B1D8C1E8D1F8E208A2122858218858319859E
:2004D600241A85251B85261CE4F522F523AD27AE28AF298D828E838FF0120B52FC74012DFB
:2004F600F527E43EF5288F29ECFF7003020B16BF25028003020B0EE4F52BF52CF52DF52E64
:20051600F52FF530F531F532F534F541F5427535FF7536FF85273B85283C85293D853B8249
:20053600853C83853DF0120B52F53EA385823B85833C853B27853C28853D297425B53E0895
:20055600853E82120436808574D0253E5068E53E24C6406274FFB53536B53633854146859F
:20057600424790000A120B3585823F858340AA3E7E00EA253FFAEE3540FEEA24D0F541EE51
:2005960034FFF542E54145427093752C01808E85354685364790000A120B35AE82AB83AA85
:2005B6003E7D00EA2EFEED3BFBEE24D0F535EB34FFF536020533742EB53E1574FFB5350596
:2005D600B536028003020533E4F535F536020533749F253E500EE53E24854008533EDF751B
:2005F600170180037517007420B53E03020699742BB53E03020693742DB53E02807974421E
:20061600B53E0302069F7443B53E030206AB7444B53E0302082F7446B53E03020846744824
:20063600B53E030205337449B53E0302082F744AB53E03020533744CB53E028052744FB59B
:200656003E030208377450B53E030207C47453B53E0280627454B53E030205337455B53E29
:200676000302083C7458B53E03020841745AB53E0302053302084B752B01020533752D013D
:20069600020533752E01020533753001020533753101020533E530600AE52A14F9892A8796
:2006B60006800BE52A24FEFB8B2A8B0187068E82120436020859E52A24FDFE8E2A8E0187DE
:2006D6000209870309870619198A1D8B1E8E1F8A828B838EF0120B1D85823B85833C74FFDF
:2006F600B53509B53606853B35853C36E52B7037C3E53B9541E53C9542502CE541C3953B77
:20071600F53FE542953CF540AA3FAE40153F74FFB53F021540EA4E600875822012043680F6
:20073600E7853F41854042AB35AE36851D82851E83851FF0120B52FA8A396034C3E49B7498
:20075600808EF063F08095F050261BBBFF011E853982C006C003120436D003D006AA1DAC92
:200776001EAD1F0ABA00010C8A1D8C1E8D1F80BBE52B7003020859C3E53B9541E53C9542D9
:200796004003020859E541C3953BF53FE542953CF540AA3FAE40153F74FFB53F021540EAB0
:2007B6004E700302085375822012043680E4E52A24FDFE8E2A8E01870209870309870619FE
:2007D600198A1D8B1E8E1FAE1FBE800040047B438014BE600040047B50800BBE4000400452
:2007F6007B4980027B588B82C00312043675823A120436758230120436758278120436D033
:2008160003BB4902800BBB50028006851E82120473851D82120473802A752F0175340A80BE
:2008360022753408801D75340A80187534108013753201800E853E821204368006853F4149
:20085600854042E5326060E52A24FCFE8E2A8E0187410987420987430987441919198541DE
:200876001D85421E85431F854420751DF2751E0B751F80851D41851E42851F4374012541D0
:20089600FAE43542FBAE438A1D8B1E8E1F8541828542838543F0120B52FEFB70030204E3F6
:2008B6008B8212043680CCE53470030204E3E530602BE52A14F9892A87068E027B007D0084
:2008D6007E008A1D8B1E8D1F8E20E52F7064AA1DFBFDFE8A1D8B1E8D1F8E208055E5316040
:2008F60021E52A24FCFE8E2A8E0187020987030987050987061919198A1D8B1E8D1F8E2011
:200916008030E52A24FEFE8E2A8E01870309870619EEFA3395E0FDFE8B1D8A1E8D1F8E202D
:20093600E52F700EAA1DAB1EFDFE8A1D8B1E8D1F8E20E52F6023E52030E71BC3E4951DFBB8
:20095600E4951EFCE4951FFDE49520FE8B1D8C1E8D1F8E208003752F00753301794E7D0002
:200976007E00752100853482C006C005C00112048AD001D005D006E5337014E521C454F000
:20099600FCE521C4540F4204E7FB4CF7198002A7210DBD00010EE533B40100E433F533E580
:2009B6001D451E451F452070B9893A8D378E38E54145427005754101F542E52C702DE52B94
:2009D6007029AA41AB42AC370C7E00C3EC9AEE9B5015758220C003C002120436D002D0035F
:2009F6001ABAFF011B80DF8A418B42E52F601175822D120436154174FFB541021542802E40
:200A1600E53745386028E52D601175822B120436154174FFB5410215428013E52E600F750C
:200A36008220120436154174FFB541021542E52B7033AD41AE428D038E041DBDFF011EC32C
:200A5600E5379BE5389C503EE52C60067B307C0080047B207C008B82C006C005120436D095
:200A760005D00680D1C3E5379541E5389542500FE541C39537F541E5429538F542800BE4A7
:200A9600F541F54280048D418E42A93AAD37AE388D028E041DBDFF011EEA4C6030E533B459
:200AB6000100E433F533700A09E7C4540FFC8C2180078704740F5CF521852182C006C005EC
:200AD600C001120459D001D005D00680C3E52B70030204E3AD41AE428D038E041DBDFF01CB
:200AF6001EEB4C70030204E3758220C006C005120436D005D00680E08F821204360204E3F0
:070B16008522828523832262
:0B0BF2003C4E4F20464C4F41543E004B
:180B1D00AA82AB83120B526003A380F8C3E5829AF582E5839BF58322A1
:1D0B3500E5828546F0A4C582C0F08547F0A4D0F025F0C5838546F0A42583F58322C8
:0D00060075814E120B6EE58260030200034F
:1C0B520020F71430F6148883A88220F507E6A88375830022E280F7E49322E022B2
:040B6E00758200226A
:00000001FF
